{
  "_format": "hh-sol-artifact-1",
  "contractName": "Lending",
  "sourceName": "contracts/Lending.sol",
  "abi": [
    {
      "inputs": [],
      "stateMutability": "nonpayable",
      "type": "constructor"
    },
    {
      "inputs": [],
      "name": "INTEREST_RATE",
      "outputs": [
        {
          "internalType": "uint256",
          "name": "",
          "type": "uint256"
        }
      ],
      "stateMutability": "view",
      "type": "function"
    },
    {
      "inputs": [
        {
          "internalType": "address",
          "name": "borrowerAddr",
          "type": "address"
        }
      ],
      "name": "acceptBorrowLoanRequest",
      "outputs": [],
      "stateMutability": "nonpayable",
      "type": "function"
    },
    {
      "inputs": [
        {
          "internalType": "address",
          "name": "",
          "type": "address"
        }
      ],
      "name": "addressToBorrowerLoanRequest",
      "outputs": [
        {
          "internalType": "address",
          "name": "borrowerAddr",
          "type": "address"
        },
        {
          "internalType": "address",
          "name": "lenderAddr",
          "type": "address"
        },
        {
          "internalType": "uint256",
          "name": "amount",
          "type": "uint256"
        },
        {
          "internalType": "uint256",
          "name": "repaidAmount",
          "type": "uint256"
        }
      ],
      "stateMutability": "view",
      "type": "function"
    },
    {
      "inputs": [],
      "name": "contract_owner",
      "outputs": [
        {
          "internalType": "address",
          "name": "",
          "type": "address"
        }
      ],
      "stateMutability": "view",
      "type": "function"
    },
    {
      "inputs": [],
      "name": "getAllBorrowerLoanRequests",
      "outputs": [
        {
          "components": [
            {
              "internalType": "address",
              "name": "borrowerAddr",
              "type": "address"
            },
            {
              "internalType": "address",
              "name": "lenderAddr",
              "type": "address"
            },
            {
              "internalType": "uint256",
              "name": "amount",
              "type": "uint256"
            },
            {
              "internalType": "uint256",
              "name": "repaidAmount",
              "type": "uint256"
            }
          ],
          "internalType": "struct Lending.borrowRequest[]",
          "name": "",
          "type": "tuple[]"
        }
      ],
      "stateMutability": "view",
      "type": "function"
    },
    {
      "inputs": [],
      "name": "getAllBorrowers",
      "outputs": [
        {
          "internalType": "address[]",
          "name": "",
          "type": "address[]"
        }
      ],
      "stateMutability": "view",
      "type": "function"
    },
    {
      "inputs": [
        {
          "internalType": "address",
          "name": "borrowerAddr",
          "type": "address"
        }
      ],
      "name": "getBorrowerLoanByAddr",
      "outputs": [
        {
          "components": [
            {
              "internalType": "address",
              "name": "borrowerAddr",
              "type": "address"
            },
            {
              "internalType": "address",
              "name": "lenderAddr",
              "type": "address"
            },
            {
              "internalType": "uint256",
              "name": "amount",
              "type": "uint256"
            },
            {
              "internalType": "uint256",
              "name": "repaidAmount",
              "type": "uint256"
            }
          ],
          "internalType": "struct Lending.borrowRequest",
          "name": "",
          "type": "tuple"
        }
      ],
      "stateMutability": "view",
      "type": "function"
    },
    {
      "inputs": [
        {
          "internalType": "uint256",
          "name": "repaymentAmount",
          "type": "uint256"
        }
      ],
      "name": "repayment",
      "outputs": [],
      "stateMutability": "nonpayable",
      "type": "function"
    },
    {
      "inputs": [
        {
          "internalType": "uint256",
          "name": "borrowAmount",
          "type": "uint256"
        }
      ],
      "name": "sendBorrowLoanRequest",
      "outputs": [],
      "stateMutability": "nonpayable",
      "type": "function"
    }
  ],
  "bytecode": "0x608060405234801561001057600080fd5b5033600260006101000a81548173ffffffffffffffffffffffffffffffffffffffff021916908373ffffffffffffffffffffffffffffffffffffffff16021790555061172a806100616000396000f3fe608060405234801561001057600080fd5b50600436106100935760003560e01c8063351e358d11610066578063351e358d14610120578063384f58eb1461013c5780635b72a33a1461015a5780636737b31e14610178578063e62480f01461019457610093565b806305fc584214610098578063293326f2146100b45780632c913dda146100d257806332abcdbe14610102575b600080fd5b6100b260048036038101906100ad9190610e2c565b6101c7565b005b6100bc6104b9565b6040516100c99190610f85565b60405180910390f35b6100ec60048036038101906100e79190610e2c565b6106a8565b6040516100f99190610ffc565b60405180910390f35b61010a6107c0565b60405161011791906110c6565b60405180910390f35b61013a60048036038101906101359190611114565b61084e565b005b610144610abc565b6040516101519190611150565b60405180910390f35b610162610ae2565b60405161016f919061117a565b60405180910390f35b610192600480360381019061018d9190611114565b610ae7565b005b6101ae60048036038101906101a99190610e2c565b610d05565b6040516101be9493929190611195565b60405180910390f35b600073ffffffffffffffffffffffffffffffffffffffff166000808373ffffffffffffffffffffffffffffffffffffffff1673ffffffffffffffffffffffffffffffffffffffff16815260200190815260200160002060000160009054906101000a900473ffffffffffffffffffffffffffffffffffffffff1673ffffffffffffffffffffffffffffffffffffffff1603610297576040517f08c379a000000000000000000000000000000000000000000000000000000000815260040161028e9061125d565b60405180910390fd5b600073ffffffffffffffffffffffffffffffffffffffff166000808373ffffffffffffffffffffffffffffffffffffffff1673ffffffffffffffffffffffffffffffffffffffff16815260200190815260200160002060010160009054906101000a900473ffffffffffffffffffffffffffffffffffffffff1673ffffffffffffffffffffffffffffffffffffffff1614610367576040517f08c379a000000000000000000000000000000000000000000000000000000000815260040161035e906112ef565b60405180910390fd5b3373ffffffffffffffffffffffffffffffffffffffff166000808373ffffffffffffffffffffffffffffffffffffffff1673ffffffffffffffffffffffffffffffffffffffff16815260200190815260200160002060000160009054906101000a900473ffffffffffffffffffffffffffffffffffffffff1673ffffffffffffffffffffffffffffffffffffffff1603610436576040517f08c379a000000000000000000000000000000000000000000000000000000000815260040161042d9061135b565b60405180910390fd5b336000808373ffffffffffffffffffffffffffffffffffffffff1673ffffffffffffffffffffffffffffffffffffffff16815260200190815260200160002060010160006101000a81548173ffffffffffffffffffffffffffffffffffffffff021916908373ffffffffffffffffffffffffffffffffffffffff16021790555050565b6060600060018054905067ffffffffffffffff8111156104dc576104db61137b565b5b60405190808252806020026020018201604052801561051557816020015b610502610d75565b8152602001906001900390816104fa5790505b50905060005b6001805490508110156106a0576000806001838154811061053f5761053e6113aa565b5b9060005260206000200160009054906101000a900473ffffffffffffffffffffffffffffffffffffffff1673ffffffffffffffffffffffffffffffffffffffff1673ffffffffffffffffffffffffffffffffffffffff1681526020019081526020016000206040518060800160405290816000820160009054906101000a900473ffffffffffffffffffffffffffffffffffffffff1673ffffffffffffffffffffffffffffffffffffffff1673ffffffffffffffffffffffffffffffffffffffff1681526020016001820160009054906101000a900473ffffffffffffffffffffffffffffffffffffffff1673ffffffffffffffffffffffffffffffffffffffff1673ffffffffffffffffffffffffffffffffffffffff16815260200160028201548152602001600382015481525050828281518110610682576106816113aa565b5b6020026020010181905250808061069890611408565b91505061051b565b508091505090565b6106b0610d75565b6000808373ffffffffffffffffffffffffffffffffffffffff1673ffffffffffffffffffffffffffffffffffffffff1681526020019081526020016000206040518060800160405290816000820160009054906101000a900473ffffffffffffffffffffffffffffffffffffffff1673ffffffffffffffffffffffffffffffffffffffff1673ffffffffffffffffffffffffffffffffffffffff1681526020016001820160009054906101000a900473ffffffffffffffffffffffffffffffffffffffff1673ffffffffffffffffffffffffffffffffffffffff1673ffffffffffffffffffffffffffffffffffffffff168152602001600282015481526020016003820154815250509050919050565b6060600180548060200260200160405190810160405280929190818152602001828054801561084457602002820191906000526020600020905b8160009054906101000a900473ffffffffffffffffffffffffffffffffffffffff1673ffffffffffffffffffffffffffffffffffffffff16815260200190600101908083116107fa575b5050505050905090565b600073ffffffffffffffffffffffffffffffffffffffff166000803373ffffffffffffffffffffffffffffffffffffffff1673ffffffffffffffffffffffffffffffffffffffff16815260200190815260200160002060000160009054906101000a900473ffffffffffffffffffffffffffffffffffffffff1673ffffffffffffffffffffffffffffffffffffffff161461091e576040517f08c379a0000000000000000000000000000000000000000000000000000000008152600401610915906114c2565b60405180910390fd5b600060405180608001604052803373ffffffffffffffffffffffffffffffffffffffff168152602001600073ffffffffffffffffffffffffffffffffffffffff16815260200183815260200160008152509050806000803373ffffffffffffffffffffffffffffffffffffffff1673ffffffffffffffffffffffffffffffffffffffff16815260200190815260200160002060008201518160000160006101000a81548173ffffffffffffffffffffffffffffffffffffffff021916908373ffffffffffffffffffffffffffffffffffffffff16021790555060208201518160010160006101000a81548173ffffffffffffffffffffffffffffffffffffffff021916908373ffffffffffffffffffffffffffffffffffffffff16021790555060408201518160020155606082015181600301559050506001339080600181540180825580915050600190039060005260206000200160009091909190916101000a81548173ffffffffffffffffffffffffffffffffffffffff021916908373ffffffffffffffffffffffffffffffffffffffff1602179055505050565b600260009054906101000a900473ffffffffffffffffffffffffffffffffffffffff1681565b600a81565b3373ffffffffffffffffffffffffffffffffffffffff166000803373ffffffffffffffffffffffffffffffffffffffff1673ffffffffffffffffffffffffffffffffffffffff16815260200190815260200160002060000160009054906101000a900473ffffffffffffffffffffffffffffffffffffffff1673ffffffffffffffffffffffffffffffffffffffff1614610bb6576040517f08c379a0000000000000000000000000000000000000000000000000000000008152600401610bad90611554565b60405180910390fd5b6064600a6064610bc69190611574565b6000803373ffffffffffffffffffffffffffffffffffffffff1673ffffffffffffffffffffffffffffffffffffffff16815260200190815260200160002060020154610c1291906115a8565b610c1c9190611631565b816000803373ffffffffffffffffffffffffffffffffffffffff1673ffffffffffffffffffffffffffffffffffffffff16815260200190815260200160002060030154610c699190611574565b1115610caa576040517f08c379a0000000000000000000000000000000000000000000000000000000008152600401610ca1906116d4565b60405180910390fd5b806000803373ffffffffffffffffffffffffffffffffffffffff1673ffffffffffffffffffffffffffffffffffffffff1681526020019081526020016000206003016000828254610cfb9190611574565b9250508190555050565b60006020528060005260406000206000915090508060000160009054906101000a900473ffffffffffffffffffffffffffffffffffffffff16908060010160009054906101000a900473ffffffffffffffffffffffffffffffffffffffff16908060020154908060030154905084565b6040518060800160405280600073ffffffffffffffffffffffffffffffffffffffff168152602001600073ffffffffffffffffffffffffffffffffffffffff16815260200160008152602001600081525090565b600080fd5b600073ffffffffffffffffffffffffffffffffffffffff82169050919050565b6000610df982610dce565b9050919050565b610e0981610dee565b8114610e1457600080fd5b50565b600081359050610e2681610e00565b92915050565b600060208284031215610e4257610e41610dc9565b5b6000610e5084828501610e17565b91505092915050565b600081519050919050565b600082825260208201905092915050565b6000819050602082019050919050565b610e8e81610dee565b82525050565b6000819050919050565b610ea781610e94565b82525050565b608082016000820151610ec36000850182610e85565b506020820151610ed66020850182610e85565b506040820151610ee96040850182610e9e565b506060820151610efc6060850182610e9e565b50505050565b6000610f0e8383610ead565b60808301905092915050565b6000602082019050919050565b6000610f3282610e59565b610f3c8185610e64565b9350610f4783610e75565b8060005b83811015610f78578151610f5f8882610f02565b9750610f6a83610f1a565b925050600181019050610f4b565b5085935050505092915050565b60006020820190508181036000830152610f9f8184610f27565b905092915050565b608082016000820151610fbd6000850182610e85565b506020820151610fd06020850182610e85565b506040820151610fe36040850182610e9e565b506060820151610ff66060850182610e9e565b50505050565b60006080820190506110116000830184610fa7565b92915050565b600081519050919050565b600082825260208201905092915050565b6000819050602082019050919050565b600061104f8383610e85565b60208301905092915050565b6000602082019050919050565b600061107382611017565b61107d8185611022565b935061108883611033565b8060005b838110156110b95781516110a08882611043565b97506110ab8361105b565b92505060018101905061108c565b5085935050505092915050565b600060208201905081810360008301526110e08184611068565b905092915050565b6110f181610e94565b81146110fc57600080fd5b50565b60008135905061110e816110e8565b92915050565b60006020828403121561112a57611129610dc9565b5b6000611138848285016110ff565b91505092915050565b61114a81610dee565b82525050565b60006020820190506111656000830184611141565b92915050565b61117481610e94565b82525050565b600060208201905061118f600083018461116b565b92915050565b60006080820190506111aa6000830187611141565b6111b76020830186611141565b6111c4604083018561116b565b6111d1606083018461116b565b95945050505050565b600082825260208201905092915050565b7f626f72726f776572206d75737420686176652061206c6f616e20616c7265616460008201527f7921000000000000000000000000000000000000000000000000000000000000602082015250565b60006112476022836111da565b9150611252826111eb565b604082019050919050565b600060208201905081810360008301526112768161123a565b9050919050565b7f626f72726f7765722773206c6f616e20686173206265656e2074616b656e206160008201527f6c72656164792100000000000000000000000000000000000000000000000000602082015250565b60006112d96027836111da565b91506112e48261127d565b604082019050919050565b60006020820190508181036000830152611308816112cc565b9050919050565b7f63616e6e6f74206c656e6420746f2073656c662773206c6f616e210000000000600082015250565b6000611345601b836111da565b91506113508261130f565b602082019050919050565b6000602082019050818103600083015261137481611338565b9050919050565b7f4e487b7100000000000000000000000000000000000000000000000000000000600052604160045260246000fd5b7f4e487b7100000000000000000000000000000000000000000000000000000000600052603260045260246000fd5b7f4e487b7100000000000000000000000000000000000000000000000000000000600052601160045260246000fd5b600061141382610e94565b91507fffffffffffffffffffffffffffffffffffffffffffffffffffffffffffffffff8203611445576114446113d9565b5b600182019050919050565b7f6f6e6520616464726573732063616e206f6e6c792073656e64206f6e6520626f60008201527f72726f77206c6f616e2100000000000000000000000000000000000000000000602082015250565b60006114ac602a836111da565b91506114b782611450565b604082019050919050565b600060208201905081810360008301526114db8161149f565b9050919050565b7f63616e206f6e6c792072657061792073656c662773206c6f616e2c206f72207360008201527f656c66206861732061206c6f616e20616c726561647921000000000000000000602082015250565b600061153e6037836111da565b9150611549826114e2565b604082019050919050565b6000602082019050818103600083015261156d81611531565b9050919050565b600061157f82610e94565b915061158a83610e94565b92508282019050808211156115a2576115a16113d9565b5b92915050565b60006115b382610e94565b91506115be83610e94565b9250817fffffffffffffffffffffffffffffffffffffffffffffffffffffffffffffffff04831182151516156115f7576115f66113d9565b5b828202905092915050565b7f4e487b7100000000000000000000000000000000000000000000000000000000600052601260045260246000fd5b600061163c82610e94565b915061164783610e94565b92508261165757611656611602565b5b828204905092915050565b7f63616e6e6f74207265706179206d6f7265207468616e20286c6f616e20706c7560008201527f732069747320696e746572657374292100000000000000000000000000000000602082015250565b60006116be6030836111da565b91506116c982611662565b604082019050919050565b600060208201905081810360008301526116ed816116b1565b905091905056fea264697066735822122039a1a342c9ec0b5581e9103eea7095cf14953514204a0eddf7ea6a2c1ff6815e64736f6c63430008100033",
  "linkReferences": {},
  "deployedLinkReferences": {}
}