{
    "contractName": "RevenueBasedLoan",
    "abi": [
        {
            "inputs": [
                {
                    "internalType": "string",
                    "name": "name_",
                    "type": "string"
                },
                {
                    "internalType": "string",
                    "name": "symbol_",
                    "type": "string"
                },
                {
                    "internalType": "uint256",
                    "name": "loanAmount_",
                    "type": "uint256"
                },
                {
                    "internalType": "uint8",
                    "name": "payoutRate_",
                    "type": "uint8"
                },
                {
                    "internalType": "uint256",
                    "name": "loanFee_",
                    "type": "uint256"
                },
                {
                    "internalType": "address",
                    "name": "borrower_",
                    "type": "address"
                },
                {
                    "internalType": "uint256",
                    "name": "timeToFill_",
                    "type": "uint256"
                },
                {
                    "internalType": "string",
                    "name": "baseURI_",
                    "type": "string"
                }
            ],
            "stateMutability": "nonpayable",
            "type": "constructor"
        },
        {
            "anonymous": false,
            "inputs": [
                {
                    "indexed": true,
                    "internalType": "address",
                    "name": "owner",
                    "type": "address"
                },
                {
                    "indexed": true,
                    "internalType": "address",
                    "name": "approved",
                    "type": "address"
                },
                {
                    "indexed": true,
                    "internalType": "uint256",
                    "name": "tokenId",
                    "type": "uint256"
                }
            ],
            "name": "Approval",
            "type": "event"
        },
        {
            "anonymous": false,
            "inputs": [
                {
                    "indexed": true,
                    "internalType": "address",
                    "name": "owner",
                    "type": "address"
                },
                {
                    "indexed": true,
                    "internalType": "address",
                    "name": "operator",
                    "type": "address"
                },
                {
                    "indexed": false,
                    "internalType": "bool",
                    "name": "approved",
                    "type": "bool"
                }
            ],
            "name": "ApprovalForAll",
            "type": "event"
        },
        {
            "anonymous": false,
            "inputs": [
                {
                    "indexed": false,
                    "internalType": "uint256",
                    "name": "value",
                    "type": "uint256"
                }
            ],
            "name": "BorrowerWithdrawal",
            "type": "event"
        },
        {
            "anonymous": false,
            "inputs": [
                {
                    "indexed": false,
                    "internalType": "uint256",
                    "name": "value",
                    "type": "uint256"
                },
                {
                    "indexed": false,
                    "internalType": "uint256",
                    "name": "loanId",
                    "type": "uint256"
                },
                {
                    "indexed": false,
                    "internalType": "address",
                    "name": "lender",
                    "type": "address"
                }
            ],
            "name": "LenderWithdrawal",
            "type": "event"
        },
        {
            "anonymous": false,
            "inputs": [
                {
                    "indexed": false,
                    "internalType": "uint256",
                    "name": "value",
                    "type": "uint256"
                }
            ],
            "name": "LoanPayment",
            "type": "event"
        },
        {
            "anonymous": false,
            "inputs": [
                {
                    "indexed": true,
                    "internalType": "address",
                    "name": "from",
                    "type": "address"
                },
                {
                    "indexed": true,
                    "internalType": "address",
                    "name": "to",
                    "type": "address"
                },
                {
                    "indexed": true,
                    "internalType": "uint256",
                    "name": "tokenId",
                    "type": "uint256"
                }
            ],
            "name": "Transfer",
            "type": "event"
        },
        {
            "inputs": [
                {
                    "internalType": "address",
                    "name": "to",
                    "type": "address"
                },
                {
                    "internalType": "uint256",
                    "name": "tokenId",
                    "type": "uint256"
                }
            ],
            "name": "approve",
            "outputs": [],
            "stateMutability": "nonpayable",
            "type": "function"
        },
        {
            "inputs": [
                {
                    "internalType": "address",
                    "name": "owner",
                    "type": "address"
                }
            ],
            "name": "balanceOf",
            "outputs": [
                {
                    "internalType": "uint256",
                    "name": "",
                    "type": "uint256"
                }
            ],
            "stateMutability": "view",
            "type": "function"
        },
        {
            "inputs": [],
            "name": "baseURI",
            "outputs": [
                {
                    "internalType": "string",
                    "name": "",
                    "type": "string"
                }
            ],
            "stateMutability": "view",
            "type": "function"
        },
        {
            "inputs": [],
            "name": "borrower",
            "outputs": [
                {
                    "internalType": "address",
                    "name": "",
                    "type": "address"
                }
            ],
            "stateMutability": "view",
            "type": "function"
        },
        {
            "inputs": [
                {
                    "internalType": "uint256",
                    "name": "_loanId",
                    "type": "uint256"
                }
            ],
            "name": "calculateSettledPayout",
            "outputs": [
                {
                    "internalType": "uint256",
                    "name": "",
                    "type": "uint256"
                }
            ],
            "stateMutability": "view",
            "type": "function"
        },
        {
            "inputs": [],
            "name": "daysToFill",
            "outputs": [
                {
                    "internalType": "uint256",
                    "name": "",
                    "type": "uint256"
                }
            ],
            "stateMutability": "view",
            "type": "function"
        },
        {
            "inputs": [],
            "name": "fundedAmount",
            "outputs": [
                {
                    "internalType": "uint256",
                    "name": "",
                    "type": "uint256"
                }
            ],
            "stateMutability": "view",
            "type": "function"
        },
        {
            "inputs": [
                {
                    "internalType": "uint256",
                    "name": "tokenId",
                    "type": "uint256"
                }
            ],
            "name": "getApproved",
            "outputs": [
                {
                    "internalType": "address",
                    "name": "",
                    "type": "address"
                }
            ],
            "stateMutability": "view",
            "type": "function"
        },
        {
            "inputs": [
                {
                    "internalType": "uint256",
                    "name": "",
                    "type": "uint256"
                }
            ],
            "name": "idToLoanAmount",
            "outputs": [
                {
                    "internalType": "uint256",
                    "name": "",
                    "type": "uint256"
                }
            ],
            "stateMutability": "view",
            "type": "function"
        },
        {
            "inputs": [
                {
                    "internalType": "uint256",
                    "name": "",
                    "type": "uint256"
                }
            ],
            "name": "idToWithdrawnAmount",
            "outputs": [
                {
                    "internalType": "uint256",
                    "name": "",
                    "type": "uint256"
                }
            ],
            "stateMutability": "view",
            "type": "function"
        },
        {
            "inputs": [
                {
                    "internalType": "address",
                    "name": "owner",
                    "type": "address"
                },
                {
                    "internalType": "address",
                    "name": "operator",
                    "type": "address"
                }
            ],
            "name": "isApprovedForAll",
            "outputs": [
                {
                    "internalType": "bool",
                    "name": "",
                    "type": "bool"
                }
            ],
            "stateMutability": "view",
            "type": "function"
        },
        {
            "inputs": [],
            "name": "lend",
            "outputs": [],
            "stateMutability": "payable",
            "type": "function"
        },
        {
            "inputs": [],
            "name": "loanAmount",
            "outputs": [
                {
                    "internalType": "uint256",
                    "name": "",
                    "type": "uint256"
                }
            ],
            "stateMutability": "view",
            "type": "function"
        },
        {
            "inputs": [],
            "name": "loanFee",
            "outputs": [
                {
                    "internalType": "uint256",
                    "name": "",
                    "type": "uint256"
                }
            ],
            "stateMutability": "view",
            "type": "function"
        },
        {
            "inputs": [],
            "name": "loansEmitted",
            "outputs": [
                {
                    "internalType": "uint64",
                    "name": "",
                    "type": "uint64"
                }
            ],
            "stateMutability": "view",
            "type": "function"
        },
        {
            "inputs": [],
            "name": "name",
            "outputs": [
                {
                    "internalType": "string",
                    "name": "",
                    "type": "string"
                }
            ],
            "stateMutability": "view",
            "type": "function"
        },
        {
            "inputs": [
                {
                    "internalType": "uint256",
                    "name": "tokenId",
                    "type": "uint256"
                }
            ],
            "name": "ownerOf",
            "outputs": [
                {
                    "internalType": "address",
                    "name": "",
                    "type": "address"
                }
            ],
            "stateMutability": "view",
            "type": "function"
        },
        {
            "inputs": [],
            "name": "paidAmount",
            "outputs": [
                {
                    "internalType": "uint256",
                    "name": "",
                    "type": "uint256"
                }
            ],
            "stateMutability": "view",
            "type": "function"
        },
        {
            "inputs": [],
            "name": "payLoan",
            "outputs": [],
            "stateMutability": "payable",
            "type": "function"
        },
        {
            "inputs": [],
            "name": "payoutRate",
            "outputs": [
                {
                    "internalType": "uint8",
                    "name": "",
                    "type": "uint8"
                }
            ],
            "stateMutability": "view",
            "type": "function"
        },
        {
            "inputs": [
                {
                    "internalType": "address",
                    "name": "from",
                    "type": "address"
                },
                {
                    "internalType": "address",
                    "name": "to",
                    "type": "address"
                },
                {
                    "internalType": "uint256",
                    "name": "tokenId",
                    "type": "uint256"
                }
            ],
            "name": "safeTransferFrom",
            "outputs": [],
            "stateMutability": "nonpayable",
            "type": "function"
        },
        {
            "inputs": [
                {
                    "internalType": "address",
                    "name": "from",
                    "type": "address"
                },
                {
                    "internalType": "address",
                    "name": "to",
                    "type": "address"
                },
                {
                    "internalType": "uint256",
                    "name": "tokenId",
                    "type": "uint256"
                },
                {
                    "internalType": "bytes",
                    "name": "data",
                    "type": "bytes"
                }
            ],
            "name": "safeTransferFrom",
            "outputs": [],
            "stateMutability": "nonpayable",
            "type": "function"
        },
        {
            "inputs": [
                {
                    "internalType": "address",
                    "name": "operator",
                    "type": "address"
                },
                {
                    "internalType": "bool",
                    "name": "approved",
                    "type": "bool"
                }
            ],
            "name": "setApprovalForAll",
            "outputs": [],
            "stateMutability": "nonpayable",
            "type": "function"
        },
        {
            "inputs": [
                {
                    "internalType": "bytes4",
                    "name": "interfaceId",
                    "type": "bytes4"
                }
            ],
            "name": "supportsInterface",
            "outputs": [
                {
                    "internalType": "bool",
                    "name": "",
                    "type": "bool"
                }
            ],
            "stateMutability": "view",
            "type": "function"
        },
        {
            "inputs": [],
            "name": "symbol",
            "outputs": [
                {
                    "internalType": "string",
                    "name": "",
                    "type": "string"
                }
            ],
            "stateMutability": "view",
            "type": "function"
        },
        {
            "inputs": [],
            "name": "timeOfCreation",
            "outputs": [
                {
                    "internalType": "uint256",
                    "name": "",
                    "type": "uint256"
                }
            ],
            "stateMutability": "view",
            "type": "function"
        },
        {
            "inputs": [
                {
                    "internalType": "uint256",
                    "name": "tokenId",
                    "type": "uint256"
                }
            ],
            "name": "tokenURI",
            "outputs": [
                {
                    "internalType": "string",
                    "name": "",
                    "type": "string"
                }
            ],
            "stateMutability": "view",
            "type": "function"
        },
        {
            "inputs": [
                {
                    "internalType": "address",
                    "name": "from",
                    "type": "address"
                },
                {
                    "internalType": "address",
                    "name": "to",
                    "type": "address"
                },
                {
                    "internalType": "uint256",
                    "name": "tokenId",
                    "type": "uint256"
                }
            ],
            "name": "transferFrom",
            "outputs": [],
            "stateMutability": "nonpayable",
            "type": "function"
        },
        {
            "inputs": [
                {
                    "internalType": "uint256",
                    "name": "_amount",
                    "type": "uint256"
                }
            ],
            "name": "withdrawBorrower",
            "outputs": [],
            "stateMutability": "nonpayable",
            "type": "function"
        },
        {
            "inputs": [
                {
                    "internalType": "uint256",
                    "name": "_amount",
                    "type": "uint256"
                },
                {
                    "internalType": "uint256",
                    "name": "_loanId",
                    "type": "uint256"
                }
            ],
            "name": "withdrawLender",
            "outputs": [],
            "stateMutability": "nonpayable",
            "type": "function"
        },
        {
            "inputs": [
                {
                    "internalType": "uint256",
                    "name": "_loanId",
                    "type": "uint256"
                }
            ],
            "name": "withdrawLenderDeprecatedLoan",
            "outputs": [],
            "stateMutability": "nonpayable",
            "type": "function"
        },
        {
            "inputs": [],
            "name": "withdrawnAmount",
            "outputs": [
                {
                    "internalType": "uint256",
                    "name": "",
                    "type": "uint256"
                }
            ],
            "stateMutability": "view",
            "type": "function"
        }
    ],
    "bytecode": "6101406040523480156200001257600080fd5b506040516200270938038062002709833981016040819052620000359162000191565b87876000620000458382620002f4565b506001620000548282620002f4565b50505060a086905260ff851660e05260c08490526001600160a01b0383166080526101208290524261010052600a6200008e8282620002f4565b505050505050505050620003c0565b634e487b7160e01b600052604160045260246000fd5b600082601f830112620000c557600080fd5b81516001600160401b0380821115620000e257620000e26200009d565b604051601f8301601f19908116603f011681019082821181831017156200010d576200010d6200009d565b816040528381526020925086838588010111156200012a57600080fd5b600091505b838210156200014e57858201830151818301840152908201906200012f565b600093810190920192909252949350505050565b805160ff811681146200017457600080fd5b919050565b80516001600160a01b03811681146200017457600080fd5b600080600080600080600080610100898b031215620001af57600080fd5b88516001600160401b0380821115620001c757600080fd5b620001d58c838d01620000b3565b995060208b0151915080821115620001ec57600080fd5b620001fa8c838d01620000b3565b985060408b015197506200021160608c0162000162565b965060808b015195506200022860a08c0162000179565b945060c08b0151935060e08b01519150808211156200024657600080fd5b50620002558b828c01620000b3565b9150509295985092959890939650565b600181811c908216806200027a57607f821691505b6020821081036200029b57634e487b7160e01b600052602260045260246000fd5b50919050565b601f821115620002ef57600081815260208120601f850160051c81016020861015620002ca5750805b601f850160051c820191505b81811015620002eb57828155600101620002d6565b5050505b505050565b81516001600160401b038111156200031057620003106200009d565b620003288162000321845462000265565b84620002a1565b602080601f831160018114620003605760008415620003475750858301515b600019600386901b1c1916600185901b178555620002eb565b600085815260208120601f198616915b82811015620003915788860151825594840194600190910190840162000370565b5085821015620003b05787850151600019600388901b60f8161c191681555b5050505050600190811b01905550565b60805160a05160c05160e0516101005161012051612297620004726000396000818161063f01528181610d7d015261110d0152600081816102cf01528181610db50152611145015260006103230152600081816104dd01526109a3015260008181610511015281816108f4015281816109c401528181610b7901528181610e3a0152818161108101526112530152600081816104400152818161093e0152818161129d01526113b401526122976000f3fe6080604052600436106101e35760003560e01c8063820a5f5011610102578063a22cb46511610095578063e392713911610064578063e3927139146105e0578063e985e9c51461060d578063f356d6891461062d578063ff238cd01461066157600080fd5b8063a22cb46514610553578063b88d4fde14610573578063c822334614610593578063c87b56dd146105c057600080fd5b806397dffc61116100d157806397dffc61146104c35780639bcb5572146104cb5780639d585f7f146104ff578063a1f5d4da1461053357600080fd5b8063820a5f5014610462578063830de4b1146104785780638cf0fc541461048e57806395d89b41146104ae57600080fd5b806342842e0e1161017a5780636d0646ee116101495780636d0646ee146103b457806370a08231146103d457806373cb2ddc146103f45780637df1f1b91461042e57600080fd5b806342842e0e14610357578063472eb03d146103775780636352211e1461037f5780636c0360eb1461039f57600080fd5b806312fa769f116101b657806312fa769f146102995780631dcd69ec146102bd57806323b872dd146102f15780632b4353f21461031157600080fd5b806301ffc9a7146101e857806306fdde031461021d578063081812fc1461023f578063095ea7b314610277575b600080fd5b3480156101f457600080fd5b50610208610203366004611ca2565b610681565b60405190151581526020015b60405180910390f35b34801561022957600080fd5b506102326106d3565b6040516102149190611d0f565b34801561024b57600080fd5b5061025f61025a366004611d22565b610765565b6040516001600160a01b039091168152602001610214565b34801561028357600080fd5b50610297610292366004611d57565b61078c565b005b3480156102a557600080fd5b506102af60085481565b604051908152602001610214565b3480156102c957600080fd5b506102af7f000000000000000000000000000000000000000000000000000000000000000081565b3480156102fd57600080fd5b5061029761030c366004611d81565b6108a6565b34801561031d57600080fd5b506103457f000000000000000000000000000000000000000000000000000000000000000081565b60405160ff9091168152602001610214565b34801561036357600080fd5b50610297610372366004611d81565b6108d7565b6102976108f2565b34801561038b57600080fd5b5061025f61039a366004611d22565b610a89565b3480156103ab57600080fd5b50610232610ae9565b3480156103c057600080fd5b506102976103cf366004611dbd565b610b77565b3480156103e057600080fd5b506102af6103ef366004611ddf565b610cf2565b34801561040057600080fd5b506009546104159067ffffffffffffffff1681565b60405167ffffffffffffffff9091168152602001610214565b34801561043a57600080fd5b5061025f7f000000000000000000000000000000000000000000000000000000000000000081565b34801561046e57600080fd5b506102af60065481565b34801561048457600080fd5b506102af60075481565b34801561049a57600080fd5b506102976104a9366004611d22565b610d78565b3480156104ba57600080fd5b50610232611070565b61029761107f565b3480156104d757600080fd5b506102af7f000000000000000000000000000000000000000000000000000000000000000081565b34801561050b57600080fd5b506102af7f000000000000000000000000000000000000000000000000000000000000000081565b34801561053f57600080fd5b5061029761054e366004611d22565b611251565b34801561055f57600080fd5b5061029761056e366004611dfa565b611465565b34801561057f57600080fd5b5061029761058e366004611e4c565b611474565b34801561059f57600080fd5b506102af6105ae366004611d22565b600c6020526000908152604090205481565b3480156105cc57600080fd5b506102326105db366004611d22565b6114ac565b3480156105ec57600080fd5b506102af6105fb366004611d22565b600b6020526000908152604090205481565b34801561061957600080fd5b50610208610628366004611f28565b611513565b34801561063957600080fd5b506102af7f000000000000000000000000000000000000000000000000000000000000000081565b34801561066d57600080fd5b506102af61067c366004611d22565b611541565b60006001600160e01b031982166380ac58cd60e01b14806106b257506001600160e01b03198216635b5e139f60e01b145b806106cd57506301ffc9a760e01b6001600160e01b03198316145b92915050565b6060600080546106e290611f5b565b80601f016020809104026020016040519081016040528092919081815260200182805461070e90611f5b565b801561075b5780601f106107305761010080835404028352916020019161075b565b820191906000526020600020905b81548152906001019060200180831161073e57829003601f168201915b5050505050905090565b60006107708261156d565b506000908152600460205260409020546001600160a01b031690565b600061079782610a89565b9050806001600160a01b0316836001600160a01b0316036108095760405162461bcd60e51b815260206004820152602160248201527f4552433732313a20617070726f76616c20746f2063757272656e74206f776e656044820152603960f91b60648201526084015b60405180910390fd5b336001600160a01b038216148061082557506108258133611513565b6108975760405162461bcd60e51b815260206004820152603e60248201527f4552433732313a20617070726f76652063616c6c6572206973206e6f7420746f60448201527f6b656e206f776e6572206e6f7220617070726f76656420666f7220616c6c00006064820152608401610800565b6108a183836115cf565b505050565b6108b0338261163d565b6108cc5760405162461bcd60e51b815260040161080090611f95565b6108a183838361169c565b6108a183838360405180602001604052806000815250611474565b7f0000000000000000000000000000000000000000000000000000000000000000600654146109335760405162461bcd60e51b815260040161080090611fe3565b336001600160a01b037f0000000000000000000000000000000000000000000000000000000000000000161461099e5760405162461bcd60e51b815260206004820152601060248201526f2737ba103a3432903137b93937bbb2b960811b6044820152606401610800565b6109e87f00000000000000000000000000000000000000000000000000000000000000007f0000000000000000000000000000000000000000000000000000000000000000612030565b346008546109f69190612030565b1115610a3d5760405162461bcd60e51b815260206004820152601660248201527521b0b713ba1037bb32b93830bc903a3432903637b0b760511b6044820152606401610800565b3460086000828254610a4f9190612030565b90915550506040513481527f55756edcf77bbfc971bef12ee8d65aa0aff64e901d2bea09c92f0f2a3103980e9060200160405180910390a1565b6000818152600260205260408120546001600160a01b0316806106cd5760405162461bcd60e51b8152602060048201526018602482015277115490cdcc8c4e881a5b9d985b1a59081d1bdad95b88125160421b6044820152606401610800565b600a8054610af690611f5b565b80601f0160208091040260200160405190810160405280929190818152602001828054610b2290611f5b565b8015610b6f5780601f10610b4457610100808354040283529160200191610b6f565b820191906000526020600020905b815481529060010190602001808311610b5257829003601f168201915b505050505081565b7f000000000000000000000000000000000000000000000000000000000000000060065414610bb85760405162461bcd60e51b815260040161080090611fe3565b610bc181610a89565b6001600160a01b0316336001600160a01b031614610bf15760405162461bcd60e51b815260040161080090612043565b6000818152600c6020526040812054610c0983611541565b610c139190612089565b905080831115610c2257600080fd5b6000828152600c602052604081208054859290610c40908490612030565b9091555050604051600090339085908381818185875af1925050503d8060008114610c87576040519150601f19603f3d011682016040523d82523d6000602084013e610c8c565b606091505b5050905080610cad5760405162461bcd60e51b81526004016108009061209c565b6040805185815260208101859052338183015290517f3b6d6c6656cbdd1a4cb44d7e359361fef85568deda3f84b2e95c5f98dd3c27169181900360600190a150505050565b60006001600160a01b038216610d5c5760405162461bcd60e51b815260206004820152602960248201527f4552433732313a2061646472657373207a65726f206973206e6f7420612076616044820152683634b21037bbb732b960b91b6064820152608401610800565b506001600160a01b031660009081526003602052604090205490565b610da37f000000000000000000000000000000000000000000000000000000000000000060186120d3565b610daf90610e106120d3565b610dd9907f0000000000000000000000000000000000000000000000000000000000000000612030565b4211610e385760405162461bcd60e51b815260206004820152602860248201527f48617665206e6f742072656163686564206465707265636174696f6e2074696d604482015267195bdd5d081e595d60c21b6064820152608401610800565b7f000000000000000000000000000000000000000000000000000000000000000060065410610eb45760405162461bcd60e51b815260206004820152602260248201527f4c6f616e20686173206265656e2066696c6c656420616e642069732061637469604482015261766560f01b6064820152608401610800565b610ebd81610a89565b6001600160a01b0316336001600160a01b031614610eed5760405162461bcd60e51b815260040161080090612043565b6000818152600c6020908152604080832054600b909252822054610f119190612089565b11610f5e5760405162461bcd60e51b815260206004820152601760248201527f416c72656164792077697468647261776e2066756e64730000000000000000006044820152606401610800565b6000818152600b6020908152604080832054600c9092528220805491929091610f88908490612030565b90915550506000818152600c6020908152604080832054600b9092528220543391610fb291612089565b604051600081818185875af1925050503d8060008114610fee576040519150601f19603f3d011682016040523d82523d6000602084013e610ff3565b606091505b50509050806110145760405162461bcd60e51b81526004016108009061209c565b6000828152600c6020908152604080832054600b909252909120547f857f5118c69e9d461625af9f76150e791dbb9eb03ebb92f103c926b0d6a0b7f59161105a91612089565b6040519081526020015b60405180910390a15050565b6060600180546106e290611f5b565b7f0000000000000000000000000000000000000000000000000000000000000000600654346110ae9190612030565b11156111085760405162461bcd60e51b815260206004820152602360248201527f457863656564696e672074686520617661696c61626c65206c6f616e20616d6f6044820152621d5b9d60ea1b6064820152608401610800565b6111337f000000000000000000000000000000000000000000000000000000000000000060186120d3565b61113f90610e106120d3565b611169907f0000000000000000000000000000000000000000000000000000000000000000612030565b4211156111c85760405162461bcd60e51b815260206004820152602760248201527f44657072656361746564206c6f616e2c206e6f7420616363657074696e67206460448201526665706f7369747360c81b6064820152608401610800565b34600660008282546111da9190612030565b90915550506009546111f790339067ffffffffffffffff16611838565b6009805467ffffffffffffffff9081166000908152600b6020526040812034905582549091169190611228836120f2565b91906101000a81548167ffffffffffffffff021916908367ffffffffffffffff16021790555050565b7f0000000000000000000000000000000000000000000000000000000000000000600654146112925760405162461bcd60e51b815260040161080090611fe3565b336001600160a01b037f000000000000000000000000000000000000000000000000000000000000000016146113195760405162461bcd60e51b815260206004820152602660248201527f4e6f742074686520626f72726f7765722c2063616e27742077697468647261776044820152652066756e647360d01b6064820152608401610800565b6006548160075461132a9190612030565b111561138d5760405162461bcd60e51b815260206004820152602c60248201527f57697468647261776e2066756e6473206578636565642074686520746f74616c60448201526b08185b5bdd5b9d081b195b9d60a21b6064820152608401610800565b806007600082825461139f9190612030565b90915550506040516000906001600160a01b037f0000000000000000000000000000000000000000000000000000000000000000169083908381818185875af1925050503d806000811461140f576040519150601f19603f3d011682016040523d82523d6000602084013e611414565b606091505b50509050806114355760405162461bcd60e51b81526004016108009061209c565b6040518281527f857f5118c69e9d461625af9f76150e791dbb9eb03ebb92f103c926b0d6a0b7f590602001611064565b61147033838361197a565b5050565b61147e338361163d565b61149a5760405162461bcd60e51b815260040161080090611f95565b6114a684848484611a48565b50505050565b60606114b78261156d565b60006114c1611a7b565b905060008151116114e1576040518060200160405280600081525061150c565b806114eb84611a8a565b6040516020016114fc929190612119565b6040516020818303038152906040525b9392505050565b6001600160a01b03918216600090815260056020908152604080832093909416825291909152205460ff1690565b6006546000828152600b602052604081205460085491929161156391906120d3565b6106cd919061215e565b6000818152600260205260409020546001600160a01b03166115cc5760405162461bcd60e51b8152602060048201526018602482015277115490cdcc8c4e881a5b9d985b1a59081d1bdad95b88125160421b6044820152606401610800565b50565b600081815260046020526040902080546001600160a01b0319166001600160a01b038416908117909155819061160482610a89565b6001600160a01b03167f8c5be1e5ebec7d5bd14f71427d1e84f3dd0314c0f7b2291e5b200ac8c7c3b92560405160405180910390a45050565b60008061164983610a89565b9050806001600160a01b0316846001600160a01b0316148061167057506116708185611513565b806116945750836001600160a01b031661168984610765565b6001600160a01b0316145b949350505050565b826001600160a01b03166116af82610a89565b6001600160a01b0316146117135760405162461bcd60e51b815260206004820152602560248201527f4552433732313a207472616e736665722066726f6d20696e636f72726563742060448201526437bbb732b960d91b6064820152608401610800565b6001600160a01b0382166117755760405162461bcd60e51b8152602060048201526024808201527f4552433732313a207472616e7366657220746f20746865207a65726f206164646044820152637265737360e01b6064820152608401610800565b6117806000826115cf565b6001600160a01b03831660009081526003602052604081208054600192906117a9908490612089565b90915550506001600160a01b03821660009081526003602052604081208054600192906117d7908490612030565b909155505060008181526002602052604080822080546001600160a01b0319166001600160a01b0386811691821790925591518493918716917fddf252ad1be2c89b69c2b068fc378daa952ba7f163c4a11628f55a4df523b3ef91a4505050565b6001600160a01b03821661188e5760405162461bcd60e51b815260206004820181905260248201527f4552433732313a206d696e7420746f20746865207a65726f20616464726573736044820152606401610800565b6000818152600260205260409020546001600160a01b0316156118f35760405162461bcd60e51b815260206004820152601c60248201527f4552433732313a20746f6b656e20616c7265616479206d696e746564000000006044820152606401610800565b6001600160a01b038216600090815260036020526040812080546001929061191c908490612030565b909155505060008181526002602052604080822080546001600160a01b0319166001600160a01b03861690811790915590518392907fddf252ad1be2c89b69c2b068fc378daa952ba7f163c4a11628f55a4df523b3ef908290a45050565b816001600160a01b0316836001600160a01b0316036119db5760405162461bcd60e51b815260206004820152601960248201527f4552433732313a20617070726f766520746f2063616c6c6572000000000000006044820152606401610800565b6001600160a01b03838116600081815260056020908152604080832094871680845294825291829020805460ff191686151590811790915591519182527f17307eab39ab6107e8899845ad3d59bd9653f200f220920489ca2b5937696c31910160405180910390a3505050565b611a5384848461169c565b611a5f84848484611b8b565b6114a65760405162461bcd60e51b815260040161080090612172565b6060600a80546106e290611f5b565b606081600003611ab15750506040805180820190915260018152600360fc1b602082015290565b8160005b8115611adb5780611ac5816121c4565b9150611ad49050600a8361215e565b9150611ab5565b60008167ffffffffffffffff811115611af657611af6611e36565b6040519080825280601f01601f191660200182016040528015611b20576020820181803683370190505b5090505b841561169457611b35600183612089565b9150611b42600a866121dd565b611b4d906030612030565b60f81b818381518110611b6257611b626121f1565b60200101906001600160f81b031916908160001a905350611b84600a8661215e565b9450611b24565b60006001600160a01b0384163b15611c8157604051630a85bd0160e11b81526001600160a01b0385169063150b7a0290611bcf903390899088908890600401612207565b6020604051808303816000875af1925050508015611c0a575060408051601f3d908101601f19168201909252611c0791810190612244565b60015b611c67573d808015611c38576040519150601f19603f3d011682016040523d82523d6000602084013e611c3d565b606091505b508051600003611c5f5760405162461bcd60e51b815260040161080090612172565b805181602001fd5b6001600160e01b031916630a85bd0160e11b149050611694565b506001949350505050565b6001600160e01b0319811681146115cc57600080fd5b600060208284031215611cb457600080fd5b813561150c81611c8c565b60005b83811015611cda578181015183820152602001611cc2565b50506000910152565b60008151808452611cfb816020860160208601611cbf565b601f01601f19169290920160200192915050565b60208152600061150c6020830184611ce3565b600060208284031215611d3457600080fd5b5035919050565b80356001600160a01b0381168114611d5257600080fd5b919050565b60008060408385031215611d6a57600080fd5b611d7383611d3b565b946020939093013593505050565b600080600060608486031215611d9657600080fd5b611d9f84611d3b565b9250611dad60208501611d3b565b9150604084013590509250925092565b60008060408385031215611dd057600080fd5b50508035926020909101359150565b600060208284031215611df157600080fd5b61150c82611d3b565b60008060408385031215611e0d57600080fd5b611e1683611d3b565b915060208301358015158114611e2b57600080fd5b809150509250929050565b634e487b7160e01b600052604160045260246000fd5b60008060008060808587031215611e6257600080fd5b611e6b85611d3b565b9350611e7960208601611d3b565b925060408501359150606085013567ffffffffffffffff80821115611e9d57600080fd5b818701915087601f830112611eb157600080fd5b813581811115611ec357611ec3611e36565b604051601f8201601f19908116603f01168101908382118183101715611eeb57611eeb611e36565b816040528281528a6020848701011115611f0457600080fd5b82602086016020830137600060208483010152809550505050505092959194509250565b60008060408385031215611f3b57600080fd5b611f4483611d3b565b9150611f5260208401611d3b565b90509250929050565b600181811c90821680611f6f57607f821691505b602082108103611f8f57634e487b7160e01b600052602260045260246000fd5b50919050565b6020808252602e908201527f4552433732313a2063616c6c6572206973206e6f7420746f6b656e206f776e6560408201526d1c881b9bdc88185c1c1c9bdd995960921b606082015260800190565b6020808252601c908201527f4c6f616e20686173206e6f74206265656e2066696c6c65642079657400000000604082015260600190565b634e487b7160e01b600052601160045260246000fd5b808201808211156106cd576106cd61201a565b60208082526026908201527f4f6e6c7920746865206c656e6465722063616e207769746864726177207468656040820152652066756e647360d01b606082015260800190565b818103818111156106cd576106cd61201a565b60208082526018908201527f4661696c656420746f2073656e64207468652066756e64730000000000000000604082015260600190565b60008160001904831182151516156120ed576120ed61201a565b500290565b600067ffffffffffffffff80831681810361210f5761210f61201a565b6001019392505050565b6000835161212b818460208801611cbf565b83519083019061213f818360208801611cbf565b01949350505050565b634e487b7160e01b600052601260045260246000fd5b60008261216d5761216d612148565b500490565b60208082526032908201527f4552433732313a207472616e7366657220746f206e6f6e20455243373231526560408201527131b2b4bb32b91034b6b83632b6b2b73a32b960711b606082015260800190565b6000600182016121d6576121d661201a565b5060010190565b6000826121ec576121ec612148565b500690565b634e487b7160e01b600052603260045260246000fd5b6001600160a01b038581168252841660208201526040810183905260806060820181905260009061223a90830184611ce3565b9695505050505050565b60006020828403121561225657600080fd5b815161150c81611c8c56fea264697066735822122086f2b9ff54a11b8abd68cc55c6dc85a06ad428f716180be6a794d84bce7f990064736f6c63430008100033",
    "sourcePath": "/Users/iw/Web3/hackathons/revenue-based-defi-lending/contracts/RevenueBasedLoan.sol",
    "compiler": {
        "name": "solc",
        "version": "0.8.16+commit.07a7930e"
    },
    "functionHashes": {
        "approve(address,uint256)": "095ea7b3",
        "balanceOf(address)": "70a08231",
        "baseURI()": "6c0360eb",
        "borrower()": "7df1f1b9",
        "calculateSettledPayout(uint256)": "ff238cd0",
        "daysToFill()": "f356d689",
        "fundedAmount()": "820a5f50",
        "getApproved(uint256)": "081812fc",
        "idToLoanAmount(uint256)": "e3927139",
        "idToWithdrawnAmount(uint256)": "c8223346",
        "isApprovedForAll(address,address)": "e985e9c5",
        "lend()": "97dffc61",
        "loanAmount()": "9d585f7f",
        "loanFee()": "9bcb5572",
        "loansEmitted()": "73cb2ddc",
        "name()": "06fdde03",
        "ownerOf(uint256)": "6352211e",
        "paidAmount()": "12fa769f",
        "payLoan()": "472eb03d",
        "payoutRate()": "2b4353f2",
        "safeTransferFrom(address,address,uint256)": "42842e0e",
        "safeTransferFrom(address,address,uint256,bytes)": "b88d4fde",
        "setApprovalForAll(address,bool)": "a22cb465",
        "supportsInterface(bytes4)": "01ffc9a7",
        "symbol()": "95d89b41",
        "timeOfCreation()": "1dcd69ec",
        "tokenURI(uint256)": "c87b56dd",
        "transferFrom(address,address,uint256)": "23b872dd",
        "withdrawBorrower(uint256)": "a1f5d4da",
        "withdrawLender(uint256,uint256)": "6d0646ee",
        "withdrawLenderDeprecatedLoan(uint256)": "8cf0fc54",
        "withdrawnAmount()": "830de4b1"
    },
    "gasEstimates": {
        "creation": {
            "codeDepositCost": "1771000",
            "executionCost": "infinite",
            "totalCost": "infinite"
        },
        "external": {
            "approve(address,uint256)": "infinite",
            "balanceOf(address)": "2656",
            "baseURI()": "infinite",
            "borrower()": "infinite",
            "calculateSettledPayout(uint256)": "6934",
            "daysToFill()": "infinite",
            "fundedAmount()": "2341",
            "getApproved(uint256)": "4815",
            "idToLoanAmount(uint256)": "2482",
            "idToWithdrawnAmount(uint256)": "2527",
            "isApprovedForAll(address,address)": "infinite",
            "lend()": "infinite",
            "loanAmount()": "infinite",
            "loanFee()": "infinite",
            "loansEmitted()": "2402",
            "name()": "infinite",
            "ownerOf(uint256)": "2628",
            "paidAmount()": "2341",
            "payLoan()": "infinite",
            "payoutRate()": "infinite",
            "safeTransferFrom(address,address,uint256)": "infinite",
            "safeTransferFrom(address,address,uint256,bytes)": "infinite",
            "setApprovalForAll(address,bool)": "26728",
            "supportsInterface(bytes4)": "557",
            "symbol()": "infinite",
            "timeOfCreation()": "infinite",
            "tokenURI(uint256)": "infinite",
            "transferFrom(address,address,uint256)": "infinite",
            "withdrawBorrower(uint256)": "infinite",
            "withdrawLender(uint256,uint256)": "infinite",
            "withdrawLenderDeprecatedLoan(uint256)": "infinite",
            "withdrawnAmount()": "2363"
        },
        "internal": {
            "_baseURI()": "infinite"
        }
    }
}