{
  "_format": "hh-sol-artifact-1",
  "contractName": "BorrowerLoans",
  "sourceName": "contracts/BorrowerLoans.sol",
  "abi": [
    {
      "inputs": [
        {
          "internalType": "address",
          "name": "",
          "type": "address"
        }
      ],
      "name": "borrowerLoans",
      "outputs": [
        {
          "internalType": "uint256",
          "name": "",
          "type": "uint256"
        }
      ],
      "stateMutability": "view",
      "type": "function"
    },
    {
      "inputs": [
        {
          "internalType": "uint256",
          "name": "",
          "type": "uint256"
        }
      ],
      "name": "borrowers",
      "outputs": [
        {
          "internalType": "address",
          "name": "",
          "type": "address"
        }
      ],
      "stateMutability": "view",
      "type": "function"
    },
    {
      "inputs": [
        {
          "internalType": "uint256",
          "name": "loanAmount_",
          "type": "uint256"
        },
        {
          "internalType": "uint8",
          "name": "payoutRate_",
          "type": "uint8"
        },
        {
          "internalType": "uint256",
          "name": "loanFee_",
          "type": "uint256"
        },
        {
          "internalType": "string",
          "name": "baseURI_",
          "type": "string"
        }
      ],
      "name": "createBorrowerLoan",
      "outputs": [
        {
          "internalType": "bool",
          "name": "",
          "type": "bool"
        }
      ],
      "stateMutability": "nonpayable",
      "type": "function"
    },
    {
      "inputs": [],
      "name": "getAllBorrowers",
      "outputs": [
        {
          "internalType": "address[]",
          "name": "",
          "type": "address[]"
        }
      ],
      "stateMutability": "view",
      "type": "function"
    },
    {
      "inputs": [
        {
          "internalType": "address",
          "name": "",
          "type": "address"
        }
      ],
      "name": "loanRequestAddresses",
      "outputs": [
        {
          "internalType": "contract RevenueBasedLoan",
          "name": "",
          "type": "address"
        }
      ],
      "stateMutability": "view",
      "type": "function"
    }
  ],
  "bytecode": "0x608060405234801561001057600080fd5b50615505806100206000396000f3fe60806040523480156200001157600080fd5b50600436106200005e5760003560e01c8063173e5fba146200006357806332abcdbe14620000995780637924d93f14620000bb578063a55f28f414620000f1578063bf00a7691462000127575b600080fd5b6200008160048036038101906200007b919062000545565b6200015d565b604051620000909190620005e2565b60405180910390f35b620000a362000190565b604051620000b29190620006cd565b60405180910390f35b620000d96004803603810190620000d391906200072c565b62000220565b604051620000e891906200076f565b60405180910390f35b6200010f60048036038101906200010991906200092c565b62000260565b6040516200011e9190620009da565b60405180910390f35b6200014560048036038101906200013f919062000545565b620004a6565b60405162000154919062000a08565b60405180910390f35b60016020528060005260406000206000915054906101000a900473ffffffffffffffffffffffffffffffffffffffff1681565b606060008054806020026020016040519081016040528092919081815260200182805480156200021657602002820191906000526020600020905b8160009054906101000a900473ffffffffffffffffffffffffffffffffffffffff1673ffffffffffffffffffffffffffffffffffffffff1681526020019060010190808311620001cb575b5050505050905090565b600081815481106200023157600080fd5b906000526020600020016000915054906101000a900473ffffffffffffffffffffffffffffffffffffffff1681565b600080600260003373ffffffffffffffffffffffffffffffffffffffff1673ffffffffffffffffffffffffffffffffffffffff1681526020019081526020016000205414620002e6576040517f08c379a0000000000000000000000000000000000000000000000000000000008152600401620002dd9062000aac565b60405180910390fd5b600085116200032c576040517f08c379a0000000000000000000000000000000000000000000000000000000008152600401620003239062000aac565b60405180910390fd5b6000858585336007876040516200034390620004be565b620003549695949392919062000c3a565b604051809103906000f08015801562000371573d6000803e3d6000fd5b5090506000339080600181540180825580915050600190039060005260206000200160009091909190916101000a81548173ffffffffffffffffffffffffffffffffffffffff021916908373ffffffffffffffffffffffffffffffffffffffff16021790555080600160003373ffffffffffffffffffffffffffffffffffffffff1673ffffffffffffffffffffffffffffffffffffffff16815260200190815260200160002060006101000a81548173ffffffffffffffffffffffffffffffffffffffff021916908373ffffffffffffffffffffffffffffffffffffffff16021790555085600260003373ffffffffffffffffffffffffffffffffffffffff1673ffffffffffffffffffffffffffffffffffffffff168152602001908152602001600020819055506001915050949350505050565b60026020528060005260406000206000915090505481565b6147f68062000cda83390190565b6000604051905090565b600080fd5b600080fd5b600073ffffffffffffffffffffffffffffffffffffffff82169050919050565b60006200050d82620004e0565b9050919050565b6200051f8162000500565b81146200052b57600080fd5b50565b6000813590506200053f8162000514565b92915050565b6000602082840312156200055e576200055d620004d6565b5b60006200056e848285016200052e565b91505092915050565b6000819050919050565b6000620005a26200059c6200059684620004e0565b62000577565b620004e0565b9050919050565b6000620005b68262000581565b9050919050565b6000620005ca82620005a9565b9050919050565b620005dc81620005bd565b82525050565b6000602082019050620005f96000830184620005d1565b92915050565b600081519050919050565b600082825260208201905092915050565b6000819050602082019050919050565b620006368162000500565b82525050565b60006200064a83836200062b565b60208301905092915050565b6000602082019050919050565b60006200067082620005ff565b6200067c81856200060a565b935062000689836200061b565b8060005b83811015620006c0578151620006a488826200063c565b9750620006b18362000656565b9250506001810190506200068d565b5085935050505092915050565b60006020820190508181036000830152620006e9818462000663565b905092915050565b6000819050919050565b6200070681620006f1565b81146200071257600080fd5b50565b6000813590506200072681620006fb565b92915050565b600060208284031215620007455762000744620004d6565b5b6000620007558482850162000715565b91505092915050565b620007698162000500565b82525050565b60006020820190506200078660008301846200075e565b92915050565b600060ff82169050919050565b620007a4816200078c565b8114620007b057600080fd5b50565b600081359050620007c48162000799565b92915050565b600080fd5b600080fd5b6000601f19601f8301169050919050565b7f4e487b7100000000000000000000000000000000000000000000000000000000600052604160045260246000fd5b6200081f82620007d4565b810181811067ffffffffffffffff82111715620008415762000840620007e5565b5b80604052505050565b600062000856620004cc565b905062000864828262000814565b919050565b600067ffffffffffffffff821115620008875762000886620007e5565b5b6200089282620007d4565b9050602081019050919050565b82818337600083830152505050565b6000620008c5620008bf8462000869565b6200084a565b905082815260208101848484011115620008e457620008e3620007cf565b5b620008f18482856200089f565b509392505050565b600082601f830112620009115762000910620007ca565b5b813562000923848260208601620008ae565b91505092915050565b60008060008060808587031215620009495762000948620004d6565b5b6000620009598782880162000715565b94505060206200096c87828801620007b3565b93505060406200097f8782880162000715565b925050606085013567ffffffffffffffff811115620009a357620009a2620004db565b5b620009b187828801620008f9565b91505092959194509250565b60008115159050919050565b620009d481620009bd565b82525050565b6000602082019050620009f16000830184620009c9565b92915050565b62000a0281620006f1565b82525050565b600060208201905062000a1f6000830184620009f7565b92915050565b600082825260208201905092915050565b7f426f72726f77657220616c7265616479207075626c697368656420612072657160008201527f7565737400000000000000000000000000000000000000000000000000000000602082015250565b600062000a9460248362000a25565b915062000aa18262000a36565b604082019050919050565b6000602082019050818103600083015262000ac78162000a85565b9050919050565b7f526576656e7565204261736564204c6f616e0000000000000000000000000000600082015250565b600062000b0660128362000a25565b915062000b138262000ace565b602082019050919050565b7f52424c0000000000000000000000000000000000000000000000000000000000600082015250565b600062000b5660038362000a25565b915062000b638262000b1e565b602082019050919050565b62000b79816200078c565b82525050565b6000819050919050565b600062000baa62000ba462000b9e8462000b7f565b62000577565b620006f1565b9050919050565b62000bbc8162000b89565b82525050565b600081519050919050565b60005b8381101562000bed57808201518184015260208101905062000bd0565b60008484015250505050565b600062000c068262000bc2565b62000c12818562000a25565b935062000c2481856020860162000bcd565b62000c2f81620007d4565b840191505092915050565b600061010082019050818103600083015262000c568162000af7565b9050818103602083015262000c6b8162000b47565b905062000c7c6040830189620009f7565b62000c8b606083018862000b6e565b62000c9a6080830187620009f7565b62000ca960a08301866200075e565b62000cb860c083018562000bb1565b81810360e083015262000ccc818462000bf9565b905097965050505050505056fe6101406040523480156200001257600080fd5b50604051620047f6380380620047f6833981810160405281019062000038919062000355565b878781600090816200004b9190620006bc565b5080600190816200005d9190620006bc565b5050508560a081815250508460ff1660e08160ff16815250508360c081815250508273ffffffffffffffffffffffffffffffffffffffff1660808173ffffffffffffffffffffffffffffffffffffffff168152505081610120818152505042610100818152505080600a9081620000d59190620006bc565b505050505050505050620007a3565b6000604051905090565b600080fd5b600080fd5b600080fd5b600080fd5b6000601f19601f8301169050919050565b7f4e487b7100000000000000000000000000000000000000000000000000000000600052604160045260246000fd5b6200014d8262000102565b810181811067ffffffffffffffff821117156200016f576200016e62000113565b5b80604052505050565b600062000184620000e4565b905062000192828262000142565b919050565b600067ffffffffffffffff821115620001b557620001b462000113565b5b620001c08262000102565b9050602081019050919050565b60005b83811015620001ed578082015181840152602081019050620001d0565b60008484015250505050565b6000620002106200020a8462000197565b62000178565b9050828152602081018484840111156200022f576200022e620000fd565b5b6200023c848285620001cd565b509392505050565b600082601f8301126200025c576200025b620000f8565b5b81516200026e848260208601620001f9565b91505092915050565b6000819050919050565b6200028c8162000277565b81146200029857600080fd5b50565b600081519050620002ac8162000281565b92915050565b600060ff82169050919050565b620002ca81620002b2565b8114620002d657600080fd5b50565b600081519050620002ea81620002bf565b92915050565b600073ffffffffffffffffffffffffffffffffffffffff82169050919050565b60006200031d82620002f0565b9050919050565b6200032f8162000310565b81146200033b57600080fd5b50565b6000815190506200034f8162000324565b92915050565b600080600080600080600080610100898b031215620003795762000378620000ee565b5b600089015167ffffffffffffffff8111156200039a5762000399620000f3565b5b620003a88b828c0162000244565b985050602089015167ffffffffffffffff811115620003cc57620003cb620000f3565b5b620003da8b828c0162000244565b9750506040620003ed8b828c016200029b565b9650506060620004008b828c01620002d9565b9550506080620004138b828c016200029b565b94505060a0620004268b828c016200033e565b93505060c0620004398b828c016200029b565b92505060e089015167ffffffffffffffff8111156200045d576200045c620000f3565b5b6200046b8b828c0162000244565b9150509295985092959890939650565b600081519050919050565b7f4e487b7100000000000000000000000000000000000000000000000000000000600052602260045260246000fd5b60006002820490506001821680620004ce57607f821691505b602082108103620004e457620004e362000486565b5b50919050565b60008190508160005260206000209050919050565b60006020601f8301049050919050565b600082821b905092915050565b6000600883026200054e7fffffffffffffffffffffffffffffffffffffffffffffffffffffffffffffffff826200050f565b6200055a86836200050f565b95508019841693508086168417925050509392505050565b6000819050919050565b60006200059d62000597620005918462000277565b62000572565b62000277565b9050919050565b6000819050919050565b620005b9836200057c565b620005d1620005c882620005a4565b8484546200051c565b825550505050565b600090565b620005e8620005d9565b620005f5818484620005ae565b505050565b5b818110156200061d5762000611600082620005de565b600181019050620005fb565b5050565b601f8211156200066c576200063681620004ea565b6200064184620004ff565b8101602085101562000651578190505b620006696200066085620004ff565b830182620005fa565b50505b505050565b600082821c905092915050565b6000620006916000198460080262000671565b1980831691505092915050565b6000620006ac83836200067e565b9150826002028217905092915050565b620006c7826200047b565b67ffffffffffffffff811115620006e357620006e262000113565b5b620006ef8254620004b5565b620006fc82828562000621565b600060209050601f8311600181146200073457600084156200071f578287015190505b6200072b85826200069e565b8655506200079b565b601f1984166200074486620004ea565b60005b828110156200076e5784890151825560018201915060208501945060208101905062000747565b868310156200078e57848901516200078a601f8916826200067e565b8355505b6001600288020188555050505b505050505050565b60805160a05160c05160e0516101005161012051613fa16200085560003960008181611186015281816116460152611c02015260008181610a71015281816111bb015261167b01526000610af5015260008181610c2b01526117b2015260008181610b3901528181610c4c01528181610e57015281816112270152818161158d015281816117d601526117fa015260008181610b9d015281816111510152818161185e01526119590152613fa16000f3fe6080604052600436106101e35760003560e01c8063820a5f5011610102578063a22cb46511610095578063e392713911610064578063e3927139146106b6578063e985e9c5146106f3578063f356d68914610730578063ff238cd01461075b576101e3565b8063a22cb465146105ea578063b88d4fde14610613578063c82233461461063c578063c87b56dd14610679576101e3565b806397dffc61116100d157806397dffc61146105615780639bcb55721461056b5780639d585f7f14610596578063a1f5d4da146105c1576101e3565b8063820a5f50146104b7578063830de4b1146104e25780638cf0fc541461050d57806395d89b4114610536576101e3565b806342842e0e1161017a5780636d0646ee116101495780636d0646ee146103fb57806370a082311461042457806373cb2ddc146104615780637df1f1b91461048c576101e3565b806342842e0e14610360578063472eb03d146103895780636352211e146103935780636c0360eb146103d0576101e3565b806312fa769f116101b657806312fa769f146102b65780631dcd69ec146102e157806323b872dd1461030c5780632b4353f214610335576101e3565b806301ffc9a7146101e857806306fdde0314610225578063081812fc14610250578063095ea7b31461028d575b600080fd5b3480156101f457600080fd5b5061020f600480360381019061020a91906128eb565b610798565b60405161021c9190612933565b60405180910390f35b34801561023157600080fd5b5061023a61087a565b60405161024791906129de565b60405180910390f35b34801561025c57600080fd5b5061027760048036038101906102729190612a36565b61090c565b6040516102849190612aa4565b60405180910390f35b34801561029957600080fd5b506102b460048036038101906102af9190612aeb565b610952565b005b3480156102c257600080fd5b506102cb610a69565b6040516102d89190612b3a565b60405180910390f35b3480156102ed57600080fd5b506102f6610a6f565b6040516103039190612b3a565b60405180910390f35b34801561031857600080fd5b50610333600480360381019061032e9190612b55565b610a93565b005b34801561034157600080fd5b5061034a610af3565b6040516103579190612bc4565b60405180910390f35b34801561036c57600080fd5b5061038760048036038101906103829190612b55565b610b17565b005b610391610b37565b005b34801561039f57600080fd5b506103ba60048036038101906103b59190612a36565b610d16565b6040516103c79190612aa4565b60405180910390f35b3480156103dc57600080fd5b506103e5610dc7565b6040516103f291906129de565b60405180910390f35b34801561040757600080fd5b50610422600480360381019061041d9190612bdf565b610e55565b005b34801561043057600080fd5b5061044b60048036038101906104469190612c1f565b61107e565b6040516104589190612b3a565b60405180910390f35b34801561046d57600080fd5b50610476611135565b6040516104839190612c6f565b60405180910390f35b34801561049857600080fd5b506104a161114f565b6040516104ae9190612aa4565b60405180910390f35b3480156104c357600080fd5b506104cc611173565b6040516104d99190612b3a565b60405180910390f35b3480156104ee57600080fd5b506104f7611179565b6040516105049190612b3a565b60405180910390f35b34801561051957600080fd5b50610534600480360381019061052f9190612a36565b61117f565b005b34801561054257600080fd5b5061054b6114f9565b60405161055891906129de565b60405180910390f35b61056961158b565b005b34801561057757600080fd5b506105806117b0565b60405161058d9190612b3a565b60405180910390f35b3480156105a257600080fd5b506105ab6117d4565b6040516105b89190612b3a565b60405180910390f35b3480156105cd57600080fd5b506105e860048036038101906105e39190612a36565b6117f8565b005b3480156105f657600080fd5b50610611600480360381019061060c9190612cb6565b611a5c565b005b34801561061f57600080fd5b5061063a60048036038101906106359190612e2b565b611a72565b005b34801561064857600080fd5b50610663600480360381019061065e9190612a36565b611ad4565b6040516106709190612b3a565b60405180910390f35b34801561068557600080fd5b506106a0600480360381019061069b9190612a36565b611aec565b6040516106ad91906129de565b60405180910390f35b3480156106c257600080fd5b506106dd60048036038101906106d89190612a36565b611b54565b6040516106ea9190612b3a565b60405180910390f35b3480156106ff57600080fd5b5061071a60048036038101906107159190612eae565b611b6c565b6040516107279190612933565b60405180910390f35b34801561073c57600080fd5b50610745611c00565b6040516107529190612b3a565b60405180910390f35b34801561076757600080fd5b50610782600480360381019061077d9190612a36565b611c24565b60405161078f9190612b3a565b60405180910390f35b60007f80ac58cd000000000000000000000000000000000000000000000000000000007bffffffffffffffffffffffffffffffffffffffffffffffffffffffff1916827bffffffffffffffffffffffffffffffffffffffffffffffffffffffff1916148061086357507f5b5e139f000000000000000000000000000000000000000000000000000000007bffffffffffffffffffffffffffffffffffffffffffffffffffffffff1916827bffffffffffffffffffffffffffffffffffffffffffffffffffffffff1916145b80610873575061087282611c5b565b5b9050919050565b60606000805461088990612f1d565b80601f01602080910402602001604051908101604052809291908181526020018280546108b590612f1d565b80156109025780601f106108d757610100808354040283529160200191610902565b820191906000526020600020905b8154815290600101906020018083116108e557829003601f168201915b5050505050905090565b600061091782611cc5565b6004600083815260200190815260200160002060009054906101000a900473ffffffffffffffffffffffffffffffffffffffff169050919050565b600061095d82610d16565b90508073ffffffffffffffffffffffffffffffffffffffff168373ffffffffffffffffffffffffffffffffffffffff16036109cd576040517f08c379a00000000000000000000000000000000000000000000000000000000081526004016109c490612fc0565b60405180910390fd5b8073ffffffffffffffffffffffffffffffffffffffff166109ec611d10565b73ffffffffffffffffffffffffffffffffffffffff161480610a1b5750610a1a81610a15611d10565b611b6c565b5b610a5a576040517f08c379a0000000000000000000000000000000000000000000000000000000008152600401610a5190613052565b60405180910390fd5b610a648383611d18565b505050565b60085481565b7f000000000000000000000000000000000000000000000000000000000000000081565b610aa4610a9e611d10565b82611dd1565b610ae3576040517f08c379a0000000000000000000000000000000000000000000000000000000008152600401610ada906130e4565b60405180910390fd5b610aee838383611e66565b505050565b7f000000000000000000000000000000000000000000000000000000000000000081565b610b3283838360405180602001604052806000815250611a72565b505050565b7f000000000000000000000000000000000000000000000000000000000000000060065414610b9b576040517f08c379a0000000000000000000000000000000000000000000000000000000008152600401610b9290613150565b60405180910390fd5b7f000000000000000000000000000000000000000000000000000000000000000073ffffffffffffffffffffffffffffffffffffffff163373ffffffffffffffffffffffffffffffffffffffff1614610c29576040517f08c379a0000000000000000000000000000000000000000000000000000000008152600401610c20906131bc565b60405180910390fd5b7f00000000000000000000000000000000000000000000000000000000000000007f0000000000000000000000000000000000000000000000000000000000000000610c75919061320b565b34600854610c83919061320b565b1115610cc4576040517f08c379a0000000000000000000000000000000000000000000000000000000008152600401610cbb9061328b565b60405180910390fd5b3460086000828254610cd6919061320b565b925050819055507f55756edcf77bbfc971bef12ee8d65aa0aff64e901d2bea09c92f0f2a3103980e34604051610d0c9190612b3a565b60405180910390a1565b6000806002600084815260200190815260200160002060009054906101000a900473ffffffffffffffffffffffffffffffffffffffff169050600073ffffffffffffffffffffffffffffffffffffffff168173ffffffffffffffffffffffffffffffffffffffff1603610dbe576040517f08c379a0000000000000000000000000000000000000000000000000000000008152600401610db5906132f7565b60405180910390fd5b80915050919050565b600a8054610dd490612f1d565b80601f0160208091040260200160405190810160405280929190818152602001828054610e0090612f1d565b8015610e4d5780601f10610e2257610100808354040283529160200191610e4d565b820191906000526020600020905b815481529060010190602001808311610e3057829003601f168201915b505050505081565b7f000000000000000000000000000000000000000000000000000000000000000060065414610eb9576040517f08c379a0000000000000000000000000000000000000000000000000000000008152600401610eb090613150565b60405180910390fd5b610ec281610d16565b73ffffffffffffffffffffffffffffffffffffffff163373ffffffffffffffffffffffffffffffffffffffff1614610f2f576040517f08c379a0000000000000000000000000000000000000000000000000000000008152600401610f2690613389565b60405180910390fd5b6000600c600083815260200190815260200160002054610f4e83611c24565b610f5891906133a9565b905080831115610f6757600080fd5b82600c60008481526020019081526020016000206000828254610f8a919061320b565b9250508190555060003373ffffffffffffffffffffffffffffffffffffffff1684604051610fb79061340e565b60006040518083038185875af1925050503d8060008114610ff4576040519150601f19603f3d011682016040523d82523d6000602084013e610ff9565b606091505b505090508061103d576040517f08c379a00000000000000000000000000000000000000000000000000000000081526004016110349061346f565b60405180910390fd5b7f3b6d6c6656cbdd1a4cb44d7e359361fef85568deda3f84b2e95c5f98dd3c27168484336040516110709392919061348f565b60405180910390a150505050565b60008073ffffffffffffffffffffffffffffffffffffffff168273ffffffffffffffffffffffffffffffffffffffff16036110ee576040517f08c379a00000000000000000000000000000000000000000000000000000000081526004016110e590613538565b60405180910390fd5b600360008373ffffffffffffffffffffffffffffffffffffffff1673ffffffffffffffffffffffffffffffffffffffff168152602001908152602001600020549050919050565b600960009054906101000a900467ffffffffffffffff1681565b7f000000000000000000000000000000000000000000000000000000000000000081565b60065481565b60075481565b610e1060187f00000000000000000000000000000000000000000000000000000000000000006111af9190613558565b6111b99190613558565b7f00000000000000000000000000000000000000000000000000000000000000006111e4919061320b565b4211611225576040517f08c379a000000000000000000000000000000000000000000000000000000000815260040161121c90613624565b60405180910390fd5b7f000000000000000000000000000000000000000000000000000000000000000060065410611289576040517f08c379a0000000000000000000000000000000000000000000000000000000008152600401611280906136b6565b60405180910390fd5b61129281610d16565b73ffffffffffffffffffffffffffffffffffffffff163373ffffffffffffffffffffffffffffffffffffffff16146112ff576040517f08c379a00000000000000000000000000000000000000000000000000000000081526004016112f690613389565b60405180910390fd5b6000600c600083815260200190815260200160002054600b60008481526020019081526020016000205461133391906133a9565b11611373576040517f08c379a000000000000000000000000000000000000000000000000000000000815260040161136a90613722565b60405180910390fd5b600b600082815260200190815260200160002054600c600083815260200190815260200160002060008282546113a9919061320b565b9250508190555060003373ffffffffffffffffffffffffffffffffffffffff16600c600084815260200190815260200160002054600b6000858152602001908152602001600020546113fb91906133a9565b6040516114079061340e565b60006040518083038185875af1925050503d8060008114611444576040519150601f19603f3d011682016040523d82523d6000602084013e611449565b606091505b505090508061148d576040517f08c379a00000000000000000000000000000000000000000000000000000000081526004016114849061346f565b60405180910390fd5b7f857f5118c69e9d461625af9f76150e791dbb9eb03ebb92f103c926b0d6a0b7f5600c600084815260200190815260200160002054600b6000858152602001908152602001600020546114e091906133a9565b6040516114ed9190612b3a565b60405180910390a15050565b60606001805461150890612f1d565b80601f016020809104026020016040519081016040528092919081815260200182805461153490612f1d565b80156115815780601f1061155657610100808354040283529160200191611581565b820191906000526020600020905b81548152906001019060200180831161156457829003601f168201915b5050505050905090565b7f0000000000000000000000000000000000000000000000000000000000000000600654346115ba919061320b565b11156115fb576040517f08c379a00000000000000000000000000000000000000000000000000000000081526004016115f2906137b4565b60405180910390fd5b600034101561163f576040517f08c379a000000000000000000000000000000000000000000000000000000000815260040161163690613820565b60405180910390fd5b610e1060187f000000000000000000000000000000000000000000000000000000000000000061166f9190613558565b6116799190613558565b7f00000000000000000000000000000000000000000000000000000000000000006116a4919061320b565b4211156116e6576040517f08c379a00000000000000000000000000000000000000000000000000000000081526004016116dd906138b2565b60405180910390fd5b34600660008282546116f8919061320b565b9250508190555061172933600960009054906101000a900467ffffffffffffffff1667ffffffffffffffff166120cc565b34600b6000600960009054906101000a900467ffffffffffffffff1667ffffffffffffffff168152602001908152602001600020819055506009600081819054906101000a900467ffffffffffffffff1680929190611787906138d2565b91906101000a81548167ffffffffffffffff021916908367ffffffffffffffff16021790555050565b7f000000000000000000000000000000000000000000000000000000000000000081565b7f000000000000000000000000000000000000000000000000000000000000000081565b7f00000000000000000000000000000000000000000000000000000000000000006006541461185c576040517f08c379a000000000000000000000000000000000000000000000000000000000815260040161185390613150565b60405180910390fd5b7f000000000000000000000000000000000000000000000000000000000000000073ffffffffffffffffffffffffffffffffffffffff163373ffffffffffffffffffffffffffffffffffffffff16146118ea576040517f08c379a00000000000000000000000000000000000000000000000000000000081526004016118e190613974565b60405180910390fd5b600654816007546118fb919061320b565b111561193c576040517f08c379a000000000000000000000000000000000000000000000000000000000815260040161193390613a06565b60405180910390fd5b806007600082825461194e919061320b565b9250508190555060007f000000000000000000000000000000000000000000000000000000000000000073ffffffffffffffffffffffffffffffffffffffff168260405161199b9061340e565b60006040518083038185875af1925050503d80600081146119d8576040519150601f19603f3d011682016040523d82523d6000602084013e6119dd565b606091505b5050905080611a21576040517f08c379a0000000000000000000000000000000000000000000000000000000008152600401611a189061346f565b60405180910390fd5b7f857f5118c69e9d461625af9f76150e791dbb9eb03ebb92f103c926b0d6a0b7f582604051611a509190612b3a565b60405180910390a15050565b611a6e611a67611d10565b83836122a5565b5050565b611a83611a7d611d10565b83611dd1565b611ac2576040517f08c379a0000000000000000000000000000000000000000000000000000000008152600401611ab9906130e4565b60405180910390fd5b611ace84848484612411565b50505050565b600c6020528060005260406000206000915090505481565b6060611af782611cc5565b6000611b0161246d565b90506000815111611b215760405180602001604052806000815250611b4c565b80611b2b846124ff565b604051602001611b3c929190613a62565b6040516020818303038152906040525b915050919050565b600b6020528060005260406000206000915090505481565b6000600560008473ffffffffffffffffffffffffffffffffffffffff1673ffffffffffffffffffffffffffffffffffffffff16815260200190815260200160002060008373ffffffffffffffffffffffffffffffffffffffff1673ffffffffffffffffffffffffffffffffffffffff16815260200190815260200160002060009054906101000a900460ff16905092915050565b7f000000000000000000000000000000000000000000000000000000000000000081565b6000600654600b600084815260200190815260200160002054600854611c4a9190613558565b611c549190613ab5565b9050919050565b60007f01ffc9a7000000000000000000000000000000000000000000000000000000007bffffffffffffffffffffffffffffffffffffffffffffffffffffffff1916827bffffffffffffffffffffffffffffffffffffffffffffffffffffffff1916149050919050565b611cce8161265f565b611d0d576040517f08c379a0000000000000000000000000000000000000000000000000000000008152600401611d04906132f7565b60405180910390fd5b50565b600033905090565b816004600083815260200190815260200160002060006101000a81548173ffffffffffffffffffffffffffffffffffffffff021916908373ffffffffffffffffffffffffffffffffffffffff160217905550808273ffffffffffffffffffffffffffffffffffffffff16611d8b83610d16565b73ffffffffffffffffffffffffffffffffffffffff167f8c5be1e5ebec7d5bd14f71427d1e84f3dd0314c0f7b2291e5b200ac8c7c3b92560405160405180910390a45050565b600080611ddd83610d16565b90508073ffffffffffffffffffffffffffffffffffffffff168473ffffffffffffffffffffffffffffffffffffffff161480611e1f5750611e1e8185611b6c565b5b80611e5d57508373ffffffffffffffffffffffffffffffffffffffff16611e458461090c565b73ffffffffffffffffffffffffffffffffffffffff16145b91505092915050565b8273ffffffffffffffffffffffffffffffffffffffff16611e8682610d16565b73ffffffffffffffffffffffffffffffffffffffff1614611edc576040517f08c379a0000000000000000000000000000000000000000000000000000000008152600401611ed390613b58565b60405180910390fd5b600073ffffffffffffffffffffffffffffffffffffffff168273ffffffffffffffffffffffffffffffffffffffff1603611f4b576040517f08c379a0000000000000000000000000000000000000000000000000000000008152600401611f4290613bea565b60405180910390fd5b611f568383836126cb565b611f61600082611d18565b6001600360008573ffffffffffffffffffffffffffffffffffffffff1673ffffffffffffffffffffffffffffffffffffffff1681526020019081526020016000206000828254611fb191906133a9565b925050819055506001600360008473ffffffffffffffffffffffffffffffffffffffff1673ffffffffffffffffffffffffffffffffffffffff1681526020019081526020016000206000828254612008919061320b565b92505081905550816002600083815260200190815260200160002060006101000a81548173ffffffffffffffffffffffffffffffffffffffff021916908373ffffffffffffffffffffffffffffffffffffffff160217905550808273ffffffffffffffffffffffffffffffffffffffff168473ffffffffffffffffffffffffffffffffffffffff167fddf252ad1be2c89b69c2b068fc378daa952ba7f163c4a11628f55a4df523b3ef60405160405180910390a46120c78383836126d0565b505050565b600073ffffffffffffffffffffffffffffffffffffffff168273ffffffffffffffffffffffffffffffffffffffff160361213b576040517f08c379a000000000000000000000000000000000000000000000000000000000815260040161213290613c56565b60405180910390fd5b6121448161265f565b15612184576040517f08c379a000000000000000000000000000000000000000000000000000000000815260040161217b90613cc2565b60405180910390fd5b612190600083836126cb565b6001600360008473ffffffffffffffffffffffffffffffffffffffff1673ffffffffffffffffffffffffffffffffffffffff16815260200190815260200160002060008282546121e0919061320b565b92505081905550816002600083815260200190815260200160002060006101000a81548173ffffffffffffffffffffffffffffffffffffffff021916908373ffffffffffffffffffffffffffffffffffffffff160217905550808273ffffffffffffffffffffffffffffffffffffffff16600073ffffffffffffffffffffffffffffffffffffffff167fddf252ad1be2c89b69c2b068fc378daa952ba7f163c4a11628f55a4df523b3ef60405160405180910390a46122a1600083836126d0565b5050565b8173ffffffffffffffffffffffffffffffffffffffff168373ffffffffffffffffffffffffffffffffffffffff1603612313576040517f08c379a000000000000000000000000000000000000000000000000000000000815260040161230a90613d2e565b60405180910390fd5b80600560008573ffffffffffffffffffffffffffffffffffffffff1673ffffffffffffffffffffffffffffffffffffffff16815260200190815260200160002060008473ffffffffffffffffffffffffffffffffffffffff1673ffffffffffffffffffffffffffffffffffffffff16815260200190815260200160002060006101000a81548160ff0219169083151502179055508173ffffffffffffffffffffffffffffffffffffffff168373ffffffffffffffffffffffffffffffffffffffff167f17307eab39ab6107e8899845ad3d59bd9653f200f220920489ca2b5937696c31836040516124049190612933565b60405180910390a3505050565b61241c848484611e66565b612428848484846126d5565b612467576040517f08c379a000000000000000000000000000000000000000000000000000000000815260040161245e90613dc0565b60405180910390fd5b50505050565b6060600a805461247c90612f1d565b80601f01602080910402602001604051908101604052809291908181526020018280546124a890612f1d565b80156124f55780601f106124ca576101008083540402835291602001916124f5565b820191906000526020600020905b8154815290600101906020018083116124d857829003601f168201915b5050505050905090565b606060008203612546576040518060400160405280600181526020017f3000000000000000000000000000000000000000000000000000000000000000815250905061265a565b600082905060005b6000821461257857808061256190613de0565b915050600a826125719190613ab5565b915061254e565b60008167ffffffffffffffff81111561259457612593612d00565b5b6040519080825280601f01601f1916602001820160405280156125c65781602001600182028036833780820191505090505b5090505b60008514612653576001826125df91906133a9565b9150600a856125ee9190613e28565b60306125fa919061320b565b60f81b8183815181106126105761260f613e59565b5b60200101907effffffffffffffffffffffffffffffffffffffffffffffffffffffffffffff1916908160001a905350600a8561264c9190613ab5565b94506125ca565b8093505050505b919050565b60008073ffffffffffffffffffffffffffffffffffffffff166002600084815260200190815260200160002060009054906101000a900473ffffffffffffffffffffffffffffffffffffffff1673ffffffffffffffffffffffffffffffffffffffff1614159050919050565b505050565b505050565b60006126f68473ffffffffffffffffffffffffffffffffffffffff1661285c565b1561284f578373ffffffffffffffffffffffffffffffffffffffff1663150b7a0261271f611d10565b8786866040518563ffffffff1660e01b81526004016127419493929190613edd565b6020604051808303816000875af192505050801561277d57506040513d601f19601f8201168201806040525081019061277a9190613f3e565b60015b6127ff573d80600081146127ad576040519150601f19603f3d011682016040523d82523d6000602084013e6127b2565b606091505b5060008151036127f7576040517f08c379a00000000000000000000000000000000000000000000000000000000081526004016127ee90613dc0565b60405180910390fd5b805181602001fd5b63150b7a0260e01b7bffffffffffffffffffffffffffffffffffffffffffffffffffffffff1916817bffffffffffffffffffffffffffffffffffffffffffffffffffffffff191614915050612854565b600190505b949350505050565b6000808273ffffffffffffffffffffffffffffffffffffffff163b119050919050565b6000604051905090565b600080fd5b600080fd5b60007fffffffff0000000000000000000000000000000000000000000000000000000082169050919050565b6128c881612893565b81146128d357600080fd5b50565b6000813590506128e5816128bf565b92915050565b60006020828403121561290157612900612889565b5b600061290f848285016128d6565b91505092915050565b60008115159050919050565b61292d81612918565b82525050565b60006020820190506129486000830184612924565b92915050565b600081519050919050565b600082825260208201905092915050565b60005b8381101561298857808201518184015260208101905061296d565b60008484015250505050565b6000601f19601f8301169050919050565b60006129b08261294e565b6129ba8185612959565b93506129ca81856020860161296a565b6129d381612994565b840191505092915050565b600060208201905081810360008301526129f881846129a5565b905092915050565b6000819050919050565b612a1381612a00565b8114612a1e57600080fd5b50565b600081359050612a3081612a0a565b92915050565b600060208284031215612a4c57612a4b612889565b5b6000612a5a84828501612a21565b91505092915050565b600073ffffffffffffffffffffffffffffffffffffffff82169050919050565b6000612a8e82612a63565b9050919050565b612a9e81612a83565b82525050565b6000602082019050612ab96000830184612a95565b92915050565b612ac881612a83565b8114612ad357600080fd5b50565b600081359050612ae581612abf565b92915050565b60008060408385031215612b0257612b01612889565b5b6000612b1085828601612ad6565b9250506020612b2185828601612a21565b9150509250929050565b612b3481612a00565b82525050565b6000602082019050612b4f6000830184612b2b565b92915050565b600080600060608486031215612b6e57612b6d612889565b5b6000612b7c86828701612ad6565b9350506020612b8d86828701612ad6565b9250506040612b9e86828701612a21565b9150509250925092565b600060ff82169050919050565b612bbe81612ba8565b82525050565b6000602082019050612bd96000830184612bb5565b92915050565b60008060408385031215612bf657612bf5612889565b5b6000612c0485828601612a21565b9250506020612c1585828601612a21565b9150509250929050565b600060208284031215612c3557612c34612889565b5b6000612c4384828501612ad6565b91505092915050565b600067ffffffffffffffff82169050919050565b612c6981612c4c565b82525050565b6000602082019050612c846000830184612c60565b92915050565b612c9381612918565b8114612c9e57600080fd5b50565b600081359050612cb081612c8a565b92915050565b60008060408385031215612ccd57612ccc612889565b5b6000612cdb85828601612ad6565b9250506020612cec85828601612ca1565b9150509250929050565b600080fd5b600080fd5b7f4e487b7100000000000000000000000000000000000000000000000000000000600052604160045260246000fd5b612d3882612994565b810181811067ffffffffffffffff82111715612d5757612d56612d00565b5b80604052505050565b6000612d6a61287f565b9050612d768282612d2f565b919050565b600067ffffffffffffffff821115612d9657612d95612d00565b5b612d9f82612994565b9050602081019050919050565b82818337600083830152505050565b6000612dce612dc984612d7b565b612d60565b905082815260208101848484011115612dea57612de9612cfb565b5b612df5848285612dac565b509392505050565b600082601f830112612e1257612e11612cf6565b5b8135612e22848260208601612dbb565b91505092915050565b60008060008060808587031215612e4557612e44612889565b5b6000612e5387828801612ad6565b9450506020612e6487828801612ad6565b9350506040612e7587828801612a21565b925050606085013567ffffffffffffffff811115612e9657612e9561288e565b5b612ea287828801612dfd565b91505092959194509250565b60008060408385031215612ec557612ec4612889565b5b6000612ed385828601612ad6565b9250506020612ee485828601612ad6565b9150509250929050565b7f4e487b7100000000000000000000000000000000000000000000000000000000600052602260045260246000fd5b60006002820490506001821680612f3557607f821691505b602082108103612f4857612f47612eee565b5b50919050565b7f4552433732313a20617070726f76616c20746f2063757272656e74206f776e6560008201527f7200000000000000000000000000000000000000000000000000000000000000602082015250565b6000612faa602183612959565b9150612fb582612f4e565b604082019050919050565b60006020820190508181036000830152612fd981612f9d565b9050919050565b7f4552433732313a20617070726f76652063616c6c6572206973206e6f7420746f60008201527f6b656e206f776e6572206e6f7220617070726f76656420666f7220616c6c0000602082015250565b600061303c603e83612959565b915061304782612fe0565b604082019050919050565b6000602082019050818103600083015261306b8161302f565b9050919050565b7f4552433732313a2063616c6c6572206973206e6f7420746f6b656e206f776e6560008201527f72206e6f7220617070726f766564000000000000000000000000000000000000602082015250565b60006130ce602e83612959565b91506130d982613072565b604082019050919050565b600060208201905081810360008301526130fd816130c1565b9050919050565b7f4c6f616e20686173206e6f74206265656e2066696c6c65642079657400000000600082015250565b600061313a601c83612959565b915061314582613104565b602082019050919050565b600060208201905081810360008301526131698161312d565b9050919050565b7f4e6f742074686520626f72726f77657200000000000000000000000000000000600082015250565b60006131a6601083612959565b91506131b182613170565b602082019050919050565b600060208201905081810360008301526131d581613199565b9050919050565b7f4e487b7100000000000000000000000000000000000000000000000000000000600052601160045260246000fd5b600061321682612a00565b915061322183612a00565b9250828201905080821115613239576132386131dc565b5b92915050565b7f43616e2774206f76657270617920746865206c6f616e00000000000000000000600082015250565b6000613275601683612959565b91506132808261323f565b602082019050919050565b600060208201905081810360008301526132a481613268565b9050919050565b7f4552433732313a20696e76616c696420746f6b656e2049440000000000000000600082015250565b60006132e1601883612959565b91506132ec826132ab565b602082019050919050565b60006020820190508181036000830152613310816132d4565b9050919050565b7f4f6e6c7920746865206c656e6465722063616e2077697468647261772074686560008201527f2066756e64730000000000000000000000000000000000000000000000000000602082015250565b6000613373602683612959565b915061337e82613317565b604082019050919050565b600060208201905081810360008301526133a281613366565b9050919050565b60006133b482612a00565b91506133bf83612a00565b92508282039050818111156133d7576133d66131dc565b5b92915050565b600081905092915050565b50565b60006133f86000836133dd565b9150613403826133e8565b600082019050919050565b6000613419826133eb565b9150819050919050565b7f4661696c656420746f2073656e64207468652066756e64730000000000000000600082015250565b6000613459601883612959565b915061346482613423565b602082019050919050565b600060208201905081810360008301526134888161344c565b9050919050565b60006060820190506134a46000830186612b2b565b6134b16020830185612b2b565b6134be6040830184612a95565b949350505050565b7f4552433732313a2061646472657373207a65726f206973206e6f74206120766160008201527f6c6964206f776e65720000000000000000000000000000000000000000000000602082015250565b6000613522602983612959565b915061352d826134c6565b604082019050919050565b6000602082019050818103600083015261355181613515565b9050919050565b600061356382612a00565b915061356e83612a00565b9250817fffffffffffffffffffffffffffffffffffffffffffffffffffffffffffffffff04831182151516156135a7576135a66131dc565b5b828202905092915050565b7f48617665206e6f742072656163686564206465707265636174696f6e2074696d60008201527f656f757420796574000000000000000000000000000000000000000000000000602082015250565b600061360e602883612959565b9150613619826135b2565b604082019050919050565b6000602082019050818103600083015261363d81613601565b9050919050565b7f4c6f616e20686173206265656e2066696c6c656420616e64206973206163746960008201527f7665000000000000000000000000000000000000000000000000000000000000602082015250565b60006136a0602283612959565b91506136ab82613644565b604082019050919050565b600060208201905081810360008301526136cf81613693565b9050919050565b7f416c72656164792077697468647261776e2066756e6473000000000000000000600082015250565b600061370c601783612959565b9150613717826136d6565b602082019050919050565b6000602082019050818103600083015261373b816136ff565b9050919050565b7f457863656564696e672074686520617661696c61626c65206c6f616e20616d6f60008201527f756e740000000000000000000000000000000000000000000000000000000000602082015250565b600061379e602383612959565b91506137a982613742565b604082019050919050565b600060208201905081810360008301526137cd81613791565b9050919050565b7f43616e2774206c656e6420302077656900000000000000000000000000000000600082015250565b600061380a601083612959565b9150613815826137d4565b602082019050919050565b60006020820190508181036000830152613839816137fd565b9050919050565b7f44657072656361746564206c6f616e2c206e6f7420616363657074696e67206460008201527f65706f7369747300000000000000000000000000000000000000000000000000602082015250565b600061389c602783612959565b91506138a782613840565b604082019050919050565b600060208201905081810360008301526138cb8161388f565b9050919050565b60006138dd82612c4c565b915067ffffffffffffffff82036138f7576138f66131dc565b5b600182019050919050565b7f4e6f742074686520626f72726f7765722c2063616e277420776974686472617760008201527f2066756e64730000000000000000000000000000000000000000000000000000602082015250565b600061395e602683612959565b915061396982613902565b604082019050919050565b6000602082019050818103600083015261398d81613951565b9050919050565b7f57697468647261776e2066756e6473206578636565642074686520746f74616c60008201527f20616d6f756e74206c656e740000000000000000000000000000000000000000602082015250565b60006139f0602c83612959565b91506139fb82613994565b604082019050919050565b60006020820190508181036000830152613a1f816139e3565b9050919050565b600081905092915050565b6000613a3c8261294e565b613a468185613a26565b9350613a5681856020860161296a565b80840191505092915050565b6000613a6e8285613a31565b9150613a7a8284613a31565b91508190509392505050565b7f4e487b7100000000000000000000000000000000000000000000000000000000600052601260045260246000fd5b6000613ac082612a00565b9150613acb83612a00565b925082613adb57613ada613a86565b5b828204905092915050565b7f4552433732313a207472616e736665722066726f6d20696e636f72726563742060008201527f6f776e6572000000000000000000000000000000000000000000000000000000602082015250565b6000613b42602583612959565b9150613b4d82613ae6565b604082019050919050565b60006020820190508181036000830152613b7181613b35565b9050919050565b7f4552433732313a207472616e7366657220746f20746865207a65726f2061646460008201527f7265737300000000000000000000000000000000000000000000000000000000602082015250565b6000613bd4602483612959565b9150613bdf82613b78565b604082019050919050565b60006020820190508181036000830152613c0381613bc7565b9050919050565b7f4552433732313a206d696e7420746f20746865207a65726f2061646472657373600082015250565b6000613c40602083612959565b9150613c4b82613c0a565b602082019050919050565b60006020820190508181036000830152613c6f81613c33565b9050919050565b7f4552433732313a20746f6b656e20616c7265616479206d696e74656400000000600082015250565b6000613cac601c83612959565b9150613cb782613c76565b602082019050919050565b60006020820190508181036000830152613cdb81613c9f565b9050919050565b7f4552433732313a20617070726f766520746f2063616c6c657200000000000000600082015250565b6000613d18601983612959565b9150613d2382613ce2565b602082019050919050565b60006020820190508181036000830152613d4781613d0b565b9050919050565b7f4552433732313a207472616e7366657220746f206e6f6e20455243373231526560008201527f63656976657220696d706c656d656e7465720000000000000000000000000000602082015250565b6000613daa603283612959565b9150613db582613d4e565b604082019050919050565b60006020820190508181036000830152613dd981613d9d565b9050919050565b6000613deb82612a00565b91507fffffffffffffffffffffffffffffffffffffffffffffffffffffffffffffffff8203613e1d57613e1c6131dc565b5b600182019050919050565b6000613e3382612a00565b9150613e3e83612a00565b925082613e4e57613e4d613a86565b5b828206905092915050565b7f4e487b7100000000000000000000000000000000000000000000000000000000600052603260045260246000fd5b600081519050919050565b600082825260208201905092915050565b6000613eaf82613e88565b613eb98185613e93565b9350613ec981856020860161296a565b613ed281612994565b840191505092915050565b6000608082019050613ef26000830187612a95565b613eff6020830186612a95565b613f0c6040830185612b2b565b8181036060830152613f1e8184613ea4565b905095945050505050565b600081519050613f38816128bf565b92915050565b600060208284031215613f5457613f53612889565b5b6000613f6284828501613f29565b9150509291505056fea26469706673582212202267999daef02fc130033606096f5fdda1aa9c2e1f0017fe8b5dc9043405e6f864736f6c63430008100033a26469706673582212204567cd333efe1f72c9cfaf2c4f753f67133d2e45d9d2a3317e57a8f630f85e3d64736f6c63430008100033",
  "linkReferences": {},
  "deployedLinkReferences": {}
}